:100AB90042414F2044455020545241490A0064752F
:100AC9006F6E6767696162616F32373840676D6160
:100AD900696C2E636F6D0A0042414F2044455020D6
:100AE9005452414900446174613A20004845580014
:080AF9000000000000000000F5
:100C130011083031323334353637383941424344A1
:030C230045460043
:060A4A008B228A2389249F
:100A5000E5291529AE28700215284E6052AB22AA4E
:100A600023A9241208F6C4540F2408F8E6FFAB2586
:100A70000527E527AA267002052614F9EF12090FAB
:100A8000AB22AA23A9241208F6540F2408F8E6FF83
:100A9000AB250527E527AA267002052614F9EF12D3
:100AA000090F74012524F524E43523F52380A1AB37
:090AB00025AA26A927E402090F7A
:10092100E4F519781A7C00FD7BFF7A0A79F9FE7FDC
:10093100081208D0120B01120BE47BFF7A0A79B975
:10094100120C277FE87E03120B887BFF7A0A79C796
:10095100120C27E4F599FDFF120B667BFF7A0A79E9
:10096100E1120B3F7D01E4FF120B667BFF7A0A79EE
:10097100EE120B3F7D017F0B120B667BFF7A0A792A
:10098100F5120B3F3098FDC298859919E519F4F5D8
:1009910090B28075250075260075271A7528007597
:1009A10029017B007A007919120A4A7D017F071219
:0D09B1000B667B007A00791A120B3F80C79D
:100BE400D2CDD2CC75CADC75CBFFD2CAD2AC75B823
:0A0BF4001075985053877FD2AF228E
:0A0C4D00752A018F99E52A70FC2238
:090C5700E4FF309804C298AF9943
:010C60002271
:03002300020C616B
:090C6100309905C299752A003290
:100C27001208F6FF600C120C4D740129F9E43AFA28
:030C370080EE222A
:030BFE00120BC80F
:100C0100D2857F037E00120BA8C2857F057E00027C
:020C11000BA82E
:100BC800EF1392A4EFC3131392A5EF1313543F131B
:0C0BD80092A6EF131313541F1392A722D0
:100C3A008F25E525C4540FFF120BFEAF25120BC8F2
:030C4A00020C0198
:100B0100E4FF120BC87FC87E00120B88C287C28621
:100B1100C2857F03120BFE120C01120C017F02121F
:100B21000BC8120C017F2C120C3A7F80120C3A7FF9
:0E0B31000C120C3A7F06120C3A7F01020C3AAD
:100B6600ED7007EF2480F5228005EF24C0F5227F83
:100B7600037E00120B88AF22120C3A7F017E000220
:020B86000B88DA
:050C72007F01020C3AB5
:080C6A00D287120C3AC2872266
:100B3F008B228A238924AB22AA23A9241208F6FF29
:100B4F0060143395E0FE120C6A74012524F524E439
:070B5F003523F52380E0229D
:100B8800E4FDFCD3ED9FEC9E5015E4FBFA0BBB0093
:0F0B9800010AEB647E4A70F50DBD00010C80E48C
:010BA700222B
:100BA800E4FDFCC3ED9FEC9E5015E4FBFA0BBB0083
:0F0BB800010AEB64024A70F50DBD00010C80E4E8
:010BC700220B
:030000000209BE34
:0C09BE00787FE4F6D8FD75812A020A0556
:10080000E709F608DFFA8046E709F208DFFA803EDA
:1008100088828C83E709F0A3DFFA8032E309F608C7
:10082000DFFA8078E309F208DFFA807088828C832F
:10083000E309F0A3DFFA806489828A83E0A3F608E3
:10084000DFFA805889828A83E0A3F208DFFA804CBD
:1008500080D280FA80C680D4806980F28033801094
:1008600080A680EA809A80A880DA80E280CA8033FD
:1008700089828A83ECFAE493A3C8C582C8CCC58375
:10088000CCF0A3C8C582C8CCC583CCDFE9DEE78045
:100890000D89828A83E493A3F608DFF9ECFAA9F0C4
:1008A000EDFB2289828A83ECFAE0A3C8C582C8CC1A
:1008B000C583CCF0A3C8C582C8CCC583CCDFEADE33
:1008C000E880DB89828A83E493A3F208DFF980CC95
:1008D00088F0EF60010E4E60C388F0ED2402B4048E
:1008E0000050B9F582EB2402B4040050AF23234535
:0608F00082239008507302
:1008F600BB010689828A83E0225002E722BBFE0200
:09090600E32289828A83E4932232
:10090F00BB010689828A83F0225002F722BBFE01C7
:02091F00F322C1
:1009CA00020921E493A3F8E493A34003F68001F219
:1009DA0008DFF48029E493A3F85407240CC8C3332E
:1009EA00C4540F4420C8834004F456800146F6DFFD
:1009FA00E4800B0102040810204080900C13E47E6E
:100A0A00019360BCA3FF543F30E509541FFEE493F1
:100A1A00A360010ECF54C025E060A840B8E493A3B8
:100A2A00FAE493A3F8E493A3C8C582C8CAC583CAE3
:100A3A00F0A3C8C582C8CAC583CADFE9DEE780BE9B
:010C260000CD
:00000001FF
